:060000000A128A11712FA3
:100EAC003F3406345B344F3466346D347D34073450
:100EBC007F346F347E088A007F08820060270A1214
:100ECC008A118000840A04087D0603190034FF0A85
:100EDC000319FE0A642FFA01FB010A128A11562724
:100EEC000A128A11F0000A128A1157270A128A1163
:100EFC00F1000A128A1158270A128A11F2000A12FA
:100F0C008A1159270A128A11F3000A128A115A27D8
:100F1C000A128A11F4000A128A115B270A128A112A
:100F2C00F5000A128A115C270A128A11F6000A12BD
:100F3C008A115D270A128A11F7000A128A115E279C
:100F4C000A128A11F8000A128A115F270A128A11F2
:100F5C00F90083010A128A11B32F831603130514A7
:100F6C0087018312031387018316031789018801F4
:100F7C00C02FC02F83120313051CC52FC62FC02FE3
:100F8C00C72F7B08803AFF0080307F02031DD02FD3
:100F9C000A307A02031CD32FD42FDE2FFA01FB0167
:100FAC007A08703E84000008831203138700E62F32
:100FBC007A08703E84000008831203138700E62F22
:100FCC000130FA070318FB0A0030FB07ED2F051858
:100FDC00F02FF12FED2FF22F0D30FD00FB30FC0028
:100FEC00FC0BF62FFD0BF62FFB2FC02FC02F0A1278
:040FFC008A1100282E
:00000001FF
