:060000000A128A114B2ECA
:100C4000F00083120313081088147008870008004E
:100C5000F00083120313081488107008870008003E
:100C60003F3406345B344F3466346D347D3407349E
:100C70007F346F347E088A007F0882003A260A1289
:100C80008A118000840A04087D0603190034FF0AD3
:100C90000319FE0A3E2EAA01AB01AC01AD01AE0163
:100CA000AF0183132A30FD000630FE003030FF0014
:100CB000203084000A128A113E260A128A1183010A
:100CC0000A128A113D2FF601F31F672E682E712E2E
:100CD000F209F309F20A0319F30AF6010314F60DF7
:100CE000712EF11F742E752E7B2EF009F109F00A7A
:100CF0000319F10A7B2E710870040319802E812ECE
:100D0000B72EF5010314F50D912E01300310F00DEF
:100D1000F10DFF3E031D862E0130F4007408F50727
:100D2000912EF11F942E952E852E972E972E7108B9
:100D30007302031D9D2E70087202031CA02EA12EAB
:100D4000A82E7008F2027108031CF303F302A82E08
:100D500001300310F10CF00CFF3E031DA92E0130F1
:100D6000F502031DB42EB52E972EB72EB72E76089A
:100D7000031DBB2EC12EF209F309F20A0319F30A6F
:100D8000C12E7308F101F1077208F001F007C82EB7
:100D90000800F601F11FCD2ECE2ED72EF009F10955
:100DA000F00A0319F10AF6010314F60DD72EF31F0A
:100DB000DA2EDB2EE52EF209F309F20A0319F30A03
:100DC0000130F4007408F606E52EF701F801710809
:100DD00070040319EC2EED2E2B2FF5010314F50DE5
:100DE000FD2E01300310F00DF10DFF3E031DF22E1C
:100DF0000130F4007408F507FD2EF11F002F012FBC
:100E0000F12E032F032F01300310F70DF80DFF3ED5
:100E1000031D042F71087302031D102F7008720246
:100E2000031C132F142F1C2F7008F2027108031CCF
:100E3000F303F30277141C2F01300310F10CF00CB4
:100E4000FF3E031D1D2F0130F502031D282F292F02
:100E5000032F2B2F2B2F7608031D2F2F352FF7094C
:100E6000F809F70A0319F80A352F7808F101F10794
:100E70007708F001F0073C2F080083160313870161
:100E800088018316031789018801831203138701E0
:100E90008801FB01FC017C08803AFF0080307F0262
:100EA000031D542F64307B02031C572F582F5A2FD9
:100EB000492F492F0A30F0000030F1007C08F3017F
:100EC000F3077B08F201F2070A128A11C9260A12F7
:100ED0008A11710883120313AB01AB077008AA01D2
:100EE000AA070A30F0000030F1007C08F301F30794
:100EF0007B08F201F2070A128A1163260A128A118C
:100F0000710883120313AD01AD077008AC01AC0783
:100F1000AE01AF012F08803AFF0080307F02031D31
:100F2000932F05302E02031C962F972F992FD72F22
:100F3000D72F831203132A08203E8400831300084E
:100F40000A128A1128260A128A119C30FA00D73018
:100F5000F900F90BA92FFA0BA92F831203132C0800
:100F6000203E8400831300080A128A1120260A12E8
:100F70008A112730FA00F530F900F90BBD2FFA0B72
:100F8000BD2F013083120313AE070318AF0A0030E0
:100F9000AF072F08803AFF0080307F02031DD22F59
:100FA00005302E02031CD52FD62F992FD72F7C0862
:100FB000803AFF0080307F02031DE02F64307B0207
:100FC000031CE32FE42FE72FFB01FC01E72F013087
:100FD000FB070318FC0A0030FC077C08803AFF007E
:100FE00080307F02031DF62F64307B02031CF92F33
:100FF000FA2F5A2F492F492F492F0A128A110028F8
:00000001FF
