:060000000A128A11D72D3F
:100B70003F3406345B344F3466346D347D3407348F
:100B80007F346F340E340D340B3407347E088A0002
:100B90007F088200C6250A128A118000840A040890
:100BA0007D0603190034FF0A0319FE0ACA2DFB0152
:100BB000FC01AE01AF01B001B101B201B301B4015A
:100BC000B501B601B70183132E30FD000530FE00DC
:100BD000B830FF00203084000A128A11CA250A1298
:100BE0008A1183010A128A11CF2EF601F31FF92D03
:100BF000FA2D032EF209F309F20A0319F30AF6019A
:100C00000314F60D032EF11F062E072E0D2EF009EC
:100C1000F109F00A0319F10A0D2E71087004031985
:100C2000122E132E492EF5010314F50D232E01303B
:100C30000310F00DF10DFF3E031D182E0130F400DE
:100C40007408F507232EF11F262E272E172E292E86
:100C5000292E71087302031D2F2E70087202031CC7
:100C6000322E332E3A2E7008F2027108031CF30361
:100C7000F3023A2E01300310F10CF00CFF3E031D7D
:100C80003B2E0130F502031D462E472E292E492EFC
:100C9000492E7608031D4D2E532EF209F309F20A50
:100CA0000319F30A532E7308F101F1077208F001DA
:100CB000F0075A2E0800F601F11F5F2E602E692EF4
:100CC000F009F109F00A0319F10AF6010314F60D0F
:100CD000692EF31F6C2E6D2E772EF209F309F20A9E
:100CE0000319F30A0130F4007408F606772EF701B1
:100CF000F8017108700403197E2E7F2EBD2EF501B8
:100D00000314F50D8F2E01300310F00DF10DFF3E91
:100D1000031D842E0130F4007408F5078F2EF11F97
:100D2000922E932E832E952E952E01300310F70DC3
:100D3000F80DFF3E031D962E71087302031DA22EAF
:100D400070087202031CA52EA62EAE2E7008F202A9
:100D50007108031CF303F3027714AE2E0130031065
:100D6000F10CF00CFF3E031DAF2E0130F502031D08
:100D7000BA2EBB2E952EBD2EBD2E7608031DC12E7C
:100D8000C72EF709F809F70A0319F80AC72E7808D9
:100D9000F101F1077708F001F007CE2E0800831665
:100DA00003138701880183160317890188018312C1
:100DB00003138801870183120313B801B9013908AD
:100DC000803AFF00A7307F02031DE82E1030380262
:100DD000031CEB2EEC2EEE2EDB2EDB2EE830F0008B
:100DE0000330F100831203133908F301F3073808C5
:100DF000F201F2070A128A115B260A128A1171089F
:100E000083120313AF01AF077008AE01AE07E830DD
:100E1000F0000330F1003908F301F3073808F2015C
:100E2000F2070A128A11F5250A128A117108FC01CB
:100E3000FC077008FB01FB076430F0000030F10094
:100E40007C08F301F3077B08F201F2070A128A110A
:100E50005B260A128A11710883120313B101B107CC
:100E60007008B001B0076430F0000030F1007C0879
:100E7000F301F3077B08F201F2070A128A11F52544
:100E80000A128A117108FC01FC077008FB01FB07BC
:100E90000A30F0000030F1007C08F301F3077B0812
:100EA000F201F2070A128A115B260A128A117108EE
:100EB00083120313B301B3077008B201B2070A30FB
:100EC000F0000030F1007C08F301F3077B08F20129
:100ED000F2070A128A11F5250A128A117108831283
:100EE0000313B501B5077008B401B407B601B70123
:100EF0003708803AFF0080307F02031D812F0A30BF
:100F00003602031C842F852F872FE52FE52F8312B0
:100F100003132A0888003408203E84008313000845
:100F200087000730FA007D30F900F90B952FFA0B96
:100F3000952F831203132B0888003208203E84006B
:100F40008313000887000730FA007D30F900F90BA1
:100F5000A72FFA0BA72F831203132C088800300841
:100F6000203E84008313000887000730FA007D309C
:100F7000F900F90BB92FFA0BB92F831203132D08BF
:100F800088002E08203E8400831300088700073065
:100F9000FA007D30F900F90BCB2FFA0BCB2F013083
:100FA00083120313B6070318B70A0030B7073708D0
:100FB000803AFF0080307F02031DE02F0A303602A6
:100FC000031CE32FE42F872FE52F01308312031337
:100FD000B8070318B90A0030B9073908803AFF008A
:100FE000A7307F02031DF62F10303802031CF92FA3
:100FF000FA2FEE2EDB2EDB2EDB2E0A128A110028B2
:00000001FF
