:060000000A128A11532FC1
:100EA60083010A128A11572F831603138501033013
:100EB60087008316031789018801831203138501AE
:100EC6008701F501F401F3010314F30D6A2FF40110
:100ED600F3010314F30D6F2F83120313071C742FF2
:100EE600752F6F2F762F85018508031D7B2F7C2F8D
:100EF600B22FF50109307502031C822F832F852F2F
:100F0600B22FB22F7308F000750A8B2F0310F00D65
:100F1600FF3E031D892F7008F1007108F400740864
:100F2600F00070088312031385040230F200443087
:100F3600F100A930F000F00B9E2FF10B9E2FF20B63
:100F46009E2F64000130F0007008F5070930750225
:100F5600031CAE2FAF2F852FB22FB22FB22F8312C5
:100F66000313871CB72FB82FB22FB92F0508FF3AE6
:100F7600031DBE2FBF2F6A2FFF30F0007008F3004D
:100F8600F401F5010314F50D09307502031CCC2F8D
:100F9600CD2FCF2F6A2F6A2F7308F000750AD52F31
:100FA6000310F00CFF3E031DD32F7008F1007108EB
:100FB600F4007408F00070088312031385050230EC
:100FC600F2004430F100A930F000F00BE82FF10BED
:100FD600E82FF20BE82F64000130F0007008F507E7
:100FE60009307502031CF82FF92FCF2F6A2F6A2FAD
:0A0FF6006A2F6A2F0A128A110028E0
:00000001FF
