:060000000A128A11612FB3
:100EC20083010A128A11652F8316031385010730E5
:100ED2008700831603178901880183120313850192
:100EE2008701F201F301772F772F772F83120313F4
:100EF20007187C2F7D2F822F871C802F812F772F21
:100F0200822F071C852F862F8B2F0130F00070084F
:100F1200F3078B2F871C8E2F8F2F952F7308F000CE
:100F22007008F200CE2F952F0718982F992F952F22
:100F32009A2F8230F100DD30F000F00B9E2FF10B82
:100F42009E2FA32F772FCE2F0130831203138500FC
:100F5200E92F0330831203138500E92F0730831230
:100F620003138500E92F0F30831203138500E92F45
:100F72001F30831203138500E92F3F3083120313BE
:100F82008500E92F7F30831203138500E92FFF309C
:100F9200831203138500E92FE92F7208013A03191E
:100FA200A52F033A0319AA2F013A0319AF2F073AC3
:100FB2000319B42F013A0319B92F033A0319BE2FAB
:100FC200013A0319C32F0F3A0319C82FE92FE92F4A
:100FD20083120313071DEE2FEF2FE92FF02F850148
:100FE200F3018230F100DD30F000F00BF62FF10B4F
:0E0FF200F62FFB2F772F772F0A128A11002877
:00000001FF
